{
  "_format": "hh-sol-artifact-1",
  "contractName": "RelayVault",
  "sourceName": "contracts/RelayVault.sol",
  "abi": [
    {
      "inputs": [
        {
          "internalType": "address",
          "name": "_wIron",
          "type": "address"
        },
        {
          "internalType": "contract UserUltraVerifier",
          "name": "_userProofVerifier",
          "type": "address"
        },
        {
          "internalType": "contract RelayUltraVerifier",
          "name": "_relayProofVerifier",
          "type": "address"
        },
        {
          "internalType": "uint256",
          "name": "_wIronPrice",
          "type": "uint256"
        },
        {
          "internalType": "uint8",
          "name": "_wIronPriceDecimals",
          "type": "uint8"
        },
        {
          "internalType": "uint8",
          "name": "_wIronDecimals",
          "type": "uint8"
        }
      ],
      "stateMutability": "nonpayable",
      "type": "constructor"
    },
    {
      "anonymous": false,
      "inputs": [
        {
          "indexed": true,
          "internalType": "address",
          "name": "previousOwner",
          "type": "address"
        },
        {
          "indexed": true,
          "internalType": "address",
          "name": "newOwner",
          "type": "address"
        }
      ],
      "name": "OwnershipTransferred",
      "type": "event"
    },
    {
      "inputs": [
        {
          "internalType": "address",
          "name": "priceFeed",
          "type": "address"
        },
        {
          "internalType": "uint8",
          "name": "assetDecimals",
          "type": "uint8"
        },
        {
          "internalType": "uint8",
          "name": "priceFeedDecimals",
          "type": "uint8"
        },
        {
          "internalType": "address",
          "name": "tokenAddress",
          "type": "address"
        }
      ],
      "name": "addSupportedAsset",
      "outputs": [],
      "stateMutability": "nonpayable",
      "type": "function"
    },
    {
      "inputs": [
        {
          "internalType": "address",
          "name": "",
          "type": "address"
        }
      ],
      "name": "assets",
      "outputs": [
        {
          "internalType": "address",
          "name": "priceFeed",
          "type": "address"
        },
        {
          "internalType": "uint8",
          "name": "assetDecimals",
          "type": "uint8"
        },
        {
          "internalType": "uint8",
          "name": "priceFeedDecimals",
          "type": "uint8"
        },
        {
          "internalType": "uint256",
          "name": "supply",
          "type": "uint256"
        },
        {
          "internalType": "bool",
          "name": "allowed",
          "type": "bool"
        }
      ],
      "stateMutability": "view",
      "type": "function"
    },
    {
      "inputs": [
        {
          "internalType": "address",
          "name": "token",
          "type": "address"
        },
        {
          "internalType": "uint256",
          "name": "_amount",
          "type": "uint256"
        }
      ],
      "name": "deposit",
      "outputs": [],
      "stateMutability": "payable",
      "type": "function"
    },
    {
      "inputs": [],
      "name": "ironDecimals",
      "outputs": [
        {
          "internalType": "uint8",
          "name": "",
          "type": "uint8"
        }
      ],
      "stateMutability": "view",
      "type": "function"
    },
    {
      "inputs": [],
      "name": "ironPrice",
      "outputs": [
        {
          "internalType": "uint256",
          "name": "",
          "type": "uint256"
        }
      ],
      "stateMutability": "view",
      "type": "function"
    },
    {
      "inputs": [],
      "name": "ironPriceDecimals",
      "outputs": [
        {
          "internalType": "uint8",
          "name": "",
          "type": "uint8"
        }
      ],
      "stateMutability": "view",
      "type": "function"
    },
    {
      "inputs": [],
      "name": "nativeETHSupply",
      "outputs": [
        {
          "internalType": "uint256",
          "name": "",
          "type": "uint256"
        }
      ],
      "stateMutability": "view",
      "type": "function"
    },
    {
      "inputs": [],
      "name": "owner",
      "outputs": [
        {
          "internalType": "address",
          "name": "",
          "type": "address"
        }
      ],
      "stateMutability": "view",
      "type": "function"
    },
    {
      "inputs": [
        {
          "internalType": "bytes",
          "name": "userProof",
          "type": "bytes"
        },
        {
          "internalType": "bytes32[]",
          "name": "userPublicInputs",
          "type": "bytes32[]"
        },
        {
          "internalType": "bytes",
          "name": "relayProof",
          "type": "bytes"
        },
        {
          "internalType": "bytes32[]",
          "name": "relayPublicInputs",
          "type": "bytes32[]"
        },
        {
          "internalType": "uint32",
          "name": "amountToSpend",
          "type": "uint32"
        },
        {
          "internalType": "address",
          "name": "transferAsset",
          "type": "address"
        },
        {
          "internalType": "address payable",
          "name": "to",
          "type": "address"
        }
      ],
      "name": "relay",
      "outputs": [],
      "stateMutability": "nonpayable",
      "type": "function"
    },
    {
      "inputs": [
        {
          "internalType": "bytes",
          "name": "userProof",
          "type": "bytes"
        },
        {
          "internalType": "bytes32[]",
          "name": "userPublicInputs",
          "type": "bytes32[]"
        },
        {
          "internalType": "bytes",
          "name": "relayProof",
          "type": "bytes"
        },
        {
          "internalType": "bytes32[]",
          "name": "relayPublicInputs",
          "type": "bytes32[]"
        },
        {
          "internalType": "uint32",
          "name": "amountToSpend",
          "type": "uint32"
        },
        {
          "internalType": "address payable",
          "name": "to",
          "type": "address"
        }
      ],
      "name": "relayEth",
      "outputs": [],
      "stateMutability": "nonpayable",
      "type": "function"
    },
    {
      "inputs": [],
      "name": "renounceOwnership",
      "outputs": [],
      "stateMutability": "nonpayable",
      "type": "function"
    },
    {
      "inputs": [
        {
          "internalType": "address",
          "name": "newOwner",
          "type": "address"
        }
      ],
      "name": "transferOwnership",
      "outputs": [],
      "stateMutability": "nonpayable",
      "type": "function"
    },
    {
      "inputs": [],
      "name": "wIRONSupply",
      "outputs": [
        {
          "internalType": "uint256",
          "name": "",
          "type": "uint256"
        }
      ],
      "stateMutability": "view",
      "type": "function"
    },
    {
      "inputs": [],
      "name": "wIron",
      "outputs": [
        {
          "internalType": "address",
          "name": "",
          "type": "address"
        }
      ],
      "stateMutability": "view",
      "type": "function"
    },
    {
      "stateMutability": "payable",
      "type": "receive"
    }
  ],
  "bytecode": "0x60806040523480156200001157600080fd5b50604051620016a5380380620016a5833981016040819052620000349162000115565b6200003f33620000ae565b600480546001600160a01b03199081166001600160a01b0398891617909155600180548216968816969096179095556002805490951693909516929092179092556005919091556006805460ff92831661ffff19909116176101009290931691909102919091179055620001ae565b600080546001600160a01b038381166001600160a01b0319831681178455604051919092169283917f8be0079c531659141344cd1fd0a4f28419497f9722a3daafe3b4186f6b6457e09190a35050565b805160ff811681146200011057600080fd5b919050565b60008060008060008060c087890312156200012e578182fd5b86516200013b8162000195565b60208801519096506200014e8162000195565b6040880151909550620001618162000195565b606088015190945092506200017960808801620000fe565b91506200018960a08801620000fe565b90509295509295509295565b6001600160a01b0381168114620001ab57600080fd5b50565b6114e780620001be6000396000f3fe6080604052600436106100e15760003560e01c8063823b2d921161007f578063abf2f27711610059578063abf2f277146102f1578063c34bb07b14610307578063f11b818814610321578063f2fde38b146103b757600080fd5b8063823b2d92146102995780638da5cb5b146102bd57806399ad5503146102db57600080fd5b806347e7ef24116100bb57806347e7ef2414610219578063584ef3211461022c578063623bd0ff14610264578063715018a61461028457600080fd5b8063067a6485146101a157806316b9c872146101d75780632f73cf96146101f957600080fd5b3661019c5734600860008282546100f89190611321565b90915550506004546001600160a01b031663a9059cbb3361011b34610578611444565b6040516001600160e01b031960e085901b1681526001600160a01b0390921660048301526024820152604401602060405180830381600087803b15801561016157600080fd5b505af1158015610175573d6000803e3d6000fd5b505050506040513d601f19601f82011682018060405250810190610199919061107b565b50005b600080fd5b3480156101ad57600080fd5b506006546101c090610100900460ff1681565b60405160ff90911681526020015b60405180910390f35b3480156101e357600080fd5b506101f76101f2366004611024565b6103d7565b005b34801561020557600080fd5b506101f761021436600461117b565b610497565b6101f7610227366004610ff9565b610713565b34801561023857600080fd5b5060045461024c906001600160a01b031681565b6040516001600160a01b0390911681526020016101ce565b34801561027057600080fd5b506101f761027f36600461109b565b61095c565b34801561029057600080fd5b506101f7610b2e565b3480156102a557600080fd5b506102af60055481565b6040519081526020016101ce565b3480156102c957600080fd5b506000546001600160a01b031661024c565b3480156102e757600080fd5b506102af60035481565b3480156102fd57600080fd5b506102af60085481565b34801561031357600080fd5b506006546101c09060ff1681565b34801561032d57600080fd5b5061037c61033c366004610fdd565b6007602052600090815260409020805460018201546002909201546001600160a01b0382169260ff600160a01b8404811693600160a81b90048116921685565b604080516001600160a01b0396909616865260ff9485166020870152929093169184019190915260608301521515608082015260a0016101ce565b3480156103c357600080fd5b506101f76103d2366004610fdd565b610b42565b6103df610bbb565b6001600160a01b03841661042a5760405162461bcd60e51b815260206004820152600d60248201526c08525395905312510811915151609a1b60448201526064015b60405180910390fd5b6001600160a01b039081166000908152600760205260408120600281018054600160ff1990911681179091558154969093166001600160a81b031990961695909517600160a01b60ff958616021760ff60a81b1916600160a81b9390941692909202929092178355910155565b61049f610bbb565b600154604051633a94343960e21b81526001600160a01b039091169063ea50d0e4906104d5908e908e908e908e906004016112bc565b60206040518083038186803b1580156104ed57600080fd5b505afa158015610501573d6000803e3d6000fd5b505050506040513d601f19601f82011682018060405250810190610525919061107b565b6105665760405162461bcd60e51b815260206004820152601260248201527124b73b30b634b2103ab9b2b910383937b7b360711b6044820152606401610421565b600254604051633a94343960e21b81526001600160a01b039091169063ea50d0e49061059c908a908a908a908a906004016112bc565b60206040518083038186803b1580156105b457600080fd5b505afa1580156105c8573d6000803e3d6000fd5b505050506040513d601f19601f820116820180604052508101906105ec919061107b565b61062e5760405162461bcd60e51b815260206004820152601360248201527224b73b30b634b2103932b630bc90383937b7b360691b6044820152606401610421565b6001600160a01b03821661064157600080fd5b60405163a9059cbb60e01b81526001600160a01b03828116600483015263ffffffff8516602483015283169063a9059cbb90604401602060405180830381600087803b15801561069057600080fd5b505af11580156106a4573d6000803e3d6000fd5b505050506040513d601f19601f820116820180604052508101906106c8919061107b565b6107065760405162461bcd60e51b815260206004820152600f60248201526e151c985b9cd9995c8819985a5b1959608a1b6044820152606401610421565b5050505050505050505050565b6001600160a01b03821660009081526007602052604090206002015460ff16151560011461075157634e487b7160e01b600052600160045260246000fd5b6040516323b872dd60e01b8152336004820152306024820152604481018290526001600160a01b038316906323b872dd90606401602060405180830381600087803b15801561079f57600080fd5b505af11580156107b3573d6000803e3d6000fd5b505050506040513d601f19601f820116820180604052508101906107d7919061107b565b506001600160a01b038216600090815260076020526040812060018101805491928492610805908490611321565b90915550600090506108178484610c15565b6004805460405163a9059cbb60e01b81523392810192909252602482018390529192506001600160a01b039091169063a9059cbb90604401602060405180830381600087803b15801561086957600080fd5b505af115801561087d573d6000803e3d6000fd5b505050506040513d601f19601f820116820180604052508101906108a1919061107b565b5034600860008282546108b49190611321565b90915550506004546001600160a01b031663a9059cbb336108d734610578611444565b6040516001600160e01b031960e085901b1681526001600160a01b0390921660048301526024820152604401602060405180830381600087803b15801561091d57600080fd5b505af1158015610931573d6000803e3d6000fd5b505050506040513d601f19601f82011682018060405250810190610955919061107b565b5050505050565b610964610bbb565b600154604051633a94343960e21b81526001600160a01b039091169063ea50d0e49061099a908d908d908d908d906004016112bc565b60206040518083038186803b1580156109b257600080fd5b505afa1580156109c6573d6000803e3d6000fd5b505050506040513d601f19601f820116820180604052508101906109ea919061107b565b610a2b5760405162461bcd60e51b815260206004820152601260248201527124b73b30b634b2103ab9b2b910383937b7b360711b6044820152606401610421565b600254604051633a94343960e21b81526001600160a01b039091169063ea50d0e490610a619089908990899089906004016112bc565b60206040518083038186803b158015610a7957600080fd5b505afa158015610a8d573d6000803e3d6000fd5b505050506040513d601f19601f82011682018060405250810190610ab1919061107b565b610af35760405162461bcd60e51b815260206004820152601360248201527224b73b30b634b2103932b630bc90383937b7b360691b6044820152606401610421565b6040516001600160a01b0382169063ffffffff841680156108fc02916000818181858888f19350505050158015610706573d6000803e3d6000fd5b610b36610bbb565b610b406000610e41565b565b610b4a610bbb565b6001600160a01b038116610baf5760405162461bcd60e51b815260206004820152602660248201527f4f776e61626c653a206e6577206f776e657220697320746865207a65726f206160448201526564647265737360d01b6064820152608401610421565b610bb881610e41565b50565b6000546001600160a01b03163314610b405760405162461bcd60e51b815260206004820181905260248201527f4f776e61626c653a2063616c6c6572206973206e6f7420746865206f776e65726044820152606401610421565b6001600160a01b03828116600090815260076020526040812054909116610c745760405162461bcd60e51b815260206004820152601360248201527221494e56414c49442866726f6d41737365742960681b6044820152606401610421565b81610c8157506000610e3b565b6001600160a01b03808416600090815260076020526040808220548151633fabe5a360e21b815291519293849391169163feaf968c9160048083019260a0929190829003018186803b158015610cd657600080fd5b505afa158015610cea573d6000803e3d6000fd5b505050506040513d601f19601f82011682018060405250810190610d0e919061126d565b506005546006546001600160a01b038b1660009081526007602052604090205494975091955086945092600160a81b900460ff9081169116149050610dfc57600654610d6790829060ff80821691610100900416610e91565b6001600160a01b038816600090815260076020526040902054600654610da291859160ff600160a81b90920482169161010090910416610e91565b6001600160a01b038916600090815260076020526040902054600654610ddd918a9160ff600160a01b90920482169161010090910416610e91565b610de79190611444565b610df19190611339565b945050505050610e3b565b6001600160a01b03871660009081526007602052604090205460065482918491610ddd918a9160ff600160a01b90920482169161010090910416610e91565b92915050565b600080546001600160a01b038381166001600160a01b0319831681178455604051919092169283917f8be0079c531659141344cd1fd0a4f28419497f9722a3daafe3b4186f6b6457e09190a35050565b60008160ff168360ff161015610eca57610eab8383611463565b610eb99060ff16600a61139c565b610ec39085611444565b9050610efd565b8160ff168360ff161115610efa57610ee28284611463565b610ef09060ff16600a61139c565b610ec39085611339565b50825b9392505050565b8035610f0f8161149c565b919050565b60008083601f840112610f25578182fd5b50813567ffffffffffffffff811115610f3c578182fd5b6020830191508360208260051b8501011115610f5757600080fd5b9250929050565b60008083601f840112610f6f578182fd5b50813567ffffffffffffffff811115610f86578182fd5b602083019150836020828501011115610f5757600080fd5b803563ffffffff81168114610f0f57600080fd5b803560ff81168114610f0f57600080fd5b805169ffffffffffffffffffff81168114610f0f57600080fd5b600060208284031215610fee578081fd5b8135610efd8161149c565b6000806040838503121561100b578081fd5b82356110168161149c565b946020939093013593505050565b60008060008060808587031215611039578182fd5b84356110448161149c565b935061105260208601610fb2565b925061106060408601610fb2565b915060608501356110708161149c565b939692955090935050565b60006020828403121561108c578081fd5b81518015158114610efd578182fd5b60008060008060008060008060008060c08b8d0312156110b9578586fd5b8a3567ffffffffffffffff808211156110d0578788fd5b6110dc8e838f01610f5e565b909c509a5060208d01359150808211156110f4578788fd5b6111008e838f01610f14565b909a50985060408d0135915080821115611118578788fd5b6111248e838f01610f5e565b909850965060608d013591508082111561113c578586fd5b506111498d828e01610f14565b909550935061115c905060808c01610f9e565b915061116a60a08c01610f04565b90509295989b9194979a5092959850565b600080600080600080600080600080600060e08c8e03121561119b578081fd5b67ffffffffffffffff808d3511156111b1578182fd5b6111be8e8e358f01610f5e565b909c509a5060208d01358110156111d3578182fd5b6111e38e60208f01358f01610f14565b909a50985060408d01358110156111f8578182fd5b6112088e60408f01358f01610f5e565b909850965060608d013581101561121d578182fd5b5061122e8d60608e01358e01610f14565b909550935061123f60808d01610f9e565b925061124d60a08d01610f04565b915061125b60c08d01610f04565b90509295989b509295989b9093969950565b600080600080600060a08688031215611284578081fd5b61128d86610fc3565b94506020860151935060408601519250606086015191506112b060808701610fc3565b90509295509295909350565b6040815283604082015283856060830137600060608583018101829052601f19601f8701168301838103820160208501529081018490526001600160fb1b03841115611306578182fd5b8360051b808660808401370160800190815295945050505050565b6000821982111561133457611334611486565b500190565b60008261135457634e487b7160e01b81526012600452602481fd5b500490565b600181815b8085111561139457816000190482111561137a5761137a611486565b8085161561138757918102915b93841c939080029061135e565b509250929050565b6000610efd83836000826113b257506001610e3b565b816113bf57506000610e3b565b81600181146113d557600281146113df576113fb565b6001915050610e3b565b60ff8411156113f0576113f0611486565b50506001821b610e3b565b5060208310610133831016604e8410600b841016171561141e575081810a610e3b565b6114288383611359565b806000190482111561143c5761143c611486565b029392505050565b600081600019048311821515161561145e5761145e611486565b500290565b600060ff821660ff84168082101561147d5761147d611486565b90039392505050565b634e487b7160e01b600052601160045260246000fd5b6001600160a01b0381168114610bb857600080fdfea2646970667358221220f204b0761064a439e41a2d898baa3c19f18be77c1e3be276c561f45a8b8e123e64736f6c63430008040033",
  "linkReferences": {},
  "deployedLinkReferences": {}
}