{
  "_format": "hh-sol-artifact-1",
  "contractName": "Feedback",
  "sourceName": "contracts/Feedback.sol",
  "abi": [
    {
      "inputs": [
        {
          "internalType": "address",
          "name": "semaphoreAddress",
          "type": "address"
        },
        {
          "internalType": "uint256",
          "name": "_groupId",
          "type": "uint256"
        }
      ],
      "stateMutability": "nonpayable",
      "type": "constructor"
    },
    {
      "inputs": [],
      "name": "groupId",
      "outputs": [
        {
          "internalType": "uint256",
          "name": "",
          "type": "uint256"
        }
      ],
      "stateMutability": "view",
      "type": "function"
    },
    {
      "inputs": [
        {
          "internalType": "uint256",
          "name": "identityCommitment",
          "type": "uint256"
        }
      ],
      "name": "joinGroup",
      "outputs": [],
      "stateMutability": "nonpayable",
      "type": "function"
    },
    {
      "inputs": [],
      "name": "semaphore",
      "outputs": [
        {
          "internalType": "contract ISemaphore",
          "name": "",
          "type": "address"
        }
      ],
      "stateMutability": "view",
      "type": "function"
    },
    {
      "inputs": [
        {
          "internalType": "uint256",
          "name": "feedback",
          "type": "uint256"
        },
        {
          "internalType": "uint256",
          "name": "merkleTreeRoot",
          "type": "uint256"
        },
        {
          "internalType": "uint256",
          "name": "nullifierHash",
          "type": "uint256"
        },
        {
          "internalType": "uint256",
          "name": "externalNullifier",
          "type": "uint256"
        },
        {
          "internalType": "uint256[8]",
          "name": "proof",
          "type": "uint256[8]"
        }
      ],
      "name": "sendFeedback",
      "outputs": [],
      "stateMutability": "nonpayable",
      "type": "function"
    }
  ],
  "bytecode": "0x608060405234801561001057600080fd5b5060405161037c38038061037c83398101604081905261002f916100b5565b600080546001600160a01b0319166001600160a01b0384169081179091556001829055604051639c11214160e01b81526004810183905260146024820152306044820152639c11214190606401600060405180830381600087803b15801561009657600080fd5b505af11580156100aa573d6000803e3d6000fd5b5050505050506100ed565b600080604083850312156100c7578182fd5b82516001600160a01b03811681146100dd578283fd5b6020939093015192949293505050565b610280806100fc6000396000f3fe608060405234801561001057600080fd5b506004361061004c5760003560e01c80637b5d2534146100515780637b85d27a14610081578063a0f44c9214610096578063eed02e4b146100ad575b600080fd5b600054610064906001600160a01b031681565b6040516001600160a01b0390911681526020015b60405180910390f35b61009461008f3660046101bd565b6100c0565b005b61009f60015481565b604051908152602001610078565b6100946100bb3660046101a5565b610134565b600054600154604051633bc778e360e01b81526001600160a01b0390921691633bc778e3916100fb9188908a9089908990899060040161020e565b600060405180830381600087803b15801561011557600080fd5b505af1158015610129573d6000803e3d6000fd5b505050505050505050565b600054600154604051631783efc360e01b81526001600160a01b0390921691631783efc391610170918590600401918252602082015260400190565b600060405180830381600087803b15801561018a57600080fd5b505af115801561019e573d6000803e3d6000fd5b5050505050565b6000602082840312156101b6578081fd5b5035919050565b60008060008060006101808087890312156101d6578182fd5b863595506020870135945060408701359350606087013592508781880111156101fd578182fd5b506080860190509295509295909350565b60006101a0820190508782528660208301528560408301528460608301528360808301526101008360a08401376000815297965050505050505056fea26469706673582212205d43b9b66155dfa3b167f2381b9fdbf164d26b85b51402f9bc62d35cc7056e1064736f6c63430008040033",
  "linkReferences": {},
  "deployedLinkReferences": {}
}